{
    "_format": "hh-sol-artifact-1",
    "contractName": "Transactions",
    "sourceName": "contracts/Transactions.sol",
    "abi": [
        {
            "anonymous": false,
            "inputs": [
                {
                    "indexed": false,
                    "internalType": "address",
                    "name": "from",
                    "type": "address"
                },
                {
                    "indexed": false,
                    "internalType": "address",
                    "name": "receiver",
                    "type": "address"
                },
                {
                    "indexed": false,
                    "internalType": "uint256",
                    "name": "amount",
                    "type": "uint256"
                }
            ],
            "name": "Transfer",
            "type": "event"
        },
        {
            "inputs": [
                {
                    "internalType": "address payable",
                    "name": "receiver",
                    "type": "address"
                },
                {
                    "internalType": "uint256",
                    "name": "amount",
                    "type": "uint256"
                }
            ],
            "name": "addToBlockchain",
            "outputs": [],
            "stateMutability": "nonpayable",
            "type": "function"
        },
        {
            "inputs": [],
            "name": "getAllTransactions",
            "outputs": [
                {
                    "components": [
                        {
                            "internalType": "address",
                            "name": "sender",
                            "type": "address"
                        },
                        {
                            "internalType": "address",
                            "name": "receiver",
                            "type": "address"
                        },
                        {
                            "internalType": "uint256",
                            "name": "amount",
                            "type": "uint256"
                        }
                    ],
                    "internalType": "struct Transactions.TransferStruct[]",
                    "name": "",
                    "type": "tuple[]"
                }
            ],
            "stateMutability": "view",
            "type": "function"
        },
        {
            "inputs": [],
            "name": "getTransactionCount",
            "outputs": [
                {
                    "internalType": "uint256",
                    "name": "",
                    "type": "uint256"
                }
            ],
            "stateMutability": "view",
            "type": "function"
        }
    ],
    "bytecode": "0x608060405234801561001057600080fd5b506106a3806100206000396000f3fe608060405234801561001057600080fd5b50600436106100415760003560e01c806327506f53146100465780632e7700f014610064578063b64782e514610082575b600080fd5b61004e61009e565b60405161005b91906104c0565b60405180910390f35b61006c6101b3565b60405161007991906104e2565b60405180910390f35b61009c6004803603810190610097919061034a565b6101bc565b005b60606001805480602002602001604051908101604052809291908181526020016000905b828210156101aa57838290600052602060002090600302016040518060600160405290816000820160009054906101000a900473ffffffffffffffffffffffffffffffffffffffff1673ffffffffffffffffffffffffffffffffffffffff1673ffffffffffffffffffffffffffffffffffffffff1681526020016001820160009054906101000a900473ffffffffffffffffffffffffffffffffffffffff1673ffffffffffffffffffffffffffffffffffffffff1673ffffffffffffffffffffffffffffffffffffffff168152602001600282015481525050815260200190600101906100c2565b50505050905090565b60008054905090565b60016000808282546101ce9190610536565b92505081905550600160405180606001604052803373ffffffffffffffffffffffffffffffffffffffff1681526020018473ffffffffffffffffffffffffffffffffffffffff16815260200183815250908060018154018082558091505060019003906000526020600020906003020160009091909190915060008201518160000160006101000a81548173ffffffffffffffffffffffffffffffffffffffff021916908373ffffffffffffffffffffffffffffffffffffffff16021790555060208201518160010160006101000a81548173ffffffffffffffffffffffffffffffffffffffff021916908373ffffffffffffffffffffffffffffffffffffffff1602179055506040820151816002015550507fddf252ad1be2c89b69c2b068fc378daa952ba7f163c4a11628f55a4df523b3ef33838360405161031493929190610489565b60405180910390a15050565b60008135905061032f8161063f565b92915050565b60008135905061034481610656565b92915050565b6000806040838503121561035d57600080fd5b600061036b85828601610320565b925050602061037c85828601610335565b9150509250929050565b60006103928383610429565b60608301905092915050565b6103a7816105da565b82525050565b6103b68161058c565b82525050565b6103c58161058c565b82525050565b60006103d68261050d565b6103e08185610525565b93506103eb836104fd565b8060005b8381101561041c5781516104038882610386565b975061040e83610518565b9250506001810190506103ef565b5085935050505092915050565b60608201600082015161043f60008501826103ad565b50602082015161045260208501826103ad565b506040820151610465604085018261046b565b50505050565b610474816105d0565b82525050565b610483816105d0565b82525050565b600060608201905061049e60008301866103bc565b6104ab602083018561039e565b6104b8604083018461047a565b949350505050565b600060208201905081810360008301526104da81846103cb565b905092915050565b60006020820190506104f7600083018461047a565b92915050565b6000819050602082019050919050565b600081519050919050565b6000602082019050919050565b600082825260208201905092915050565b6000610541826105d0565b915061054c836105d0565b9250827fffffffffffffffffffffffffffffffffffffffffffffffffffffffffffffffff0382111561058157610580610610565b5b828201905092915050565b6000610597826105b0565b9050919050565b60006105a9826105b0565b9050919050565b600073ffffffffffffffffffffffffffffffffffffffff82169050919050565b6000819050919050565b60006105e5826105ec565b9050919050565b60006105f7826105fe565b9050919050565b6000610609826105b0565b9050919050565b7f4e487b7100000000000000000000000000000000000000000000000000000000600052601160045260246000fd5b6106488161059e565b811461065357600080fd5b50565b61065f816105d0565b811461066a57600080fd5b5056fea2646970667358221220b1781b6b08f12ab27226a37e35f241aaca28291e3a74a02e406a245b04ce343464736f6c63430008000033",
    "linkReferences": {},
    "deployedLinkReferences": {}
}